{
  "contractName": "BnbSwap",
  "abi": [
    {
      "inputs": [
        {
          "internalType": "contract SMTKToken",
          "name": "_token",
          "type": "address"
        }
      ],
      "stateMutability": "nonpayable",
      "type": "constructor"
    },
    {
      "anonymous": false,
      "inputs": [
        {
          "indexed": false,
          "internalType": "address",
          "name": "account",
          "type": "address"
        },
        {
          "indexed": false,
          "internalType": "address",
          "name": "token",
          "type": "address"
        },
        {
          "indexed": false,
          "internalType": "uint256",
          "name": "amount",
          "type": "uint256"
        },
        {
          "indexed": false,
          "internalType": "uint256",
          "name": "rate",
          "type": "uint256"
        }
      ],
      "name": "TokenPurchase",
      "type": "event"
    },
    {
      "anonymous": false,
      "inputs": [
        {
          "indexed": false,
          "internalType": "address",
          "name": "account",
          "type": "address"
        },
        {
          "indexed": false,
          "internalType": "address",
          "name": "token",
          "type": "address"
        },
        {
          "indexed": false,
          "internalType": "uint256",
          "name": "amount",
          "type": "uint256"
        },
        {
          "indexed": false,
          "internalType": "uint256",
          "name": "rate",
          "type": "uint256"
        }
      ],
      "name": "TokenSold",
      "type": "event"
    },
    {
      "inputs": [],
      "name": "minTokenTrade",
      "outputs": [
        {
          "internalType": "uint256",
          "name": "",
          "type": "uint256"
        }
      ],
      "stateMutability": "view",
      "type": "function",
      "constant": true
    },
    {
      "inputs": [],
      "name": "name",
      "outputs": [
        {
          "internalType": "string",
          "name": "",
          "type": "string"
        }
      ],
      "stateMutability": "view",
      "type": "function",
      "constant": true
    },
    {
      "inputs": [],
      "name": "rate",
      "outputs": [
        {
          "internalType": "uint256",
          "name": "",
          "type": "uint256"
        }
      ],
      "stateMutability": "view",
      "type": "function",
      "constant": true
    },
    {
      "inputs": [],
      "name": "token",
      "outputs": [
        {
          "internalType": "contract SMTKToken",
          "name": "",
          "type": "address"
        }
      ],
      "stateMutability": "view",
      "type": "function",
      "constant": true
    },
    {
      "inputs": [],
      "name": "upRate",
      "outputs": [
        {
          "internalType": "uint256",
          "name": "",
          "type": "uint256"
        }
      ],
      "stateMutability": "view",
      "type": "function",
      "constant": true
    },
    {
      "inputs": [],
      "name": "buyTokens",
      "outputs": [],
      "stateMutability": "payable",
      "type": "function",
      "payable": true
    },
    {
      "inputs": [
        {
          "internalType": "uint256",
          "name": "_amountSMTK",
          "type": "uint256"
        }
      ],
      "name": "sellTokens",
      "outputs": [],
      "stateMutability": "nonpayable",
      "type": "function"
    },
    {
      "inputs": [
        {
          "internalType": "uint256",
          "name": "_AmountBNB",
          "type": "uint256"
        }
      ],
      "name": "getBuyInfo",
      "outputs": [
        {
          "internalType": "uint256[2]",
          "name": "sellInfo",
          "type": "uint256[2]"
        }
      ],
      "stateMutability": "view",
      "type": "function",
      "constant": true
    },
    {
      "inputs": [
        {
          "internalType": "uint256",
          "name": "_amountSMTK",
          "type": "uint256"
        }
      ],
      "name": "getSellInfo",
      "outputs": [
        {
          "internalType": "uint256[2]",
          "name": "buyInfo",
          "type": "uint256[2]"
        }
      ],
      "stateMutability": "view",
      "type": "function",
      "constant": true
    },
    {
      "inputs": [
        {
          "internalType": "uint256",
          "name": "_circulatingSupply",
          "type": "uint256"
        }
      ],
      "name": "getEstimatedRateBuySell",
      "outputs": [
        {
          "internalType": "uint256",
          "name": "",
          "type": "uint256"
        }
      ],
      "stateMutability": "view",
      "type": "function",
      "constant": true
    },
    {
      "inputs": [],
      "name": "getEstimatedRateBuySell",
      "outputs": [
        {
          "internalType": "uint256",
          "name": "",
          "type": "uint256"
        }
      ],
      "stateMutability": "view",
      "type": "function",
      "constant": true
    }
  ],
  "bytecode": "0x60806040526040518060400160405280601881526020017f426e625377617020496e7374616e742045786368616e6765000000000000000081525060009080519060200190620000519291906200018f565b503480156200005f57600080fd5b5060405162001f1c38038062001f1c83398181016040528101906200008591906200026d565b80600160006101000a81548173ffffffffffffffffffffffffffffffffffffffff021916908373ffffffffffffffffffffffffffffffffffffffff1602179055506123e8600281905550600254600160009054906101000a900473ffffffffffffffffffffffffffffffffffffffff1673ffffffffffffffffffffffffffffffffffffffff166318160ddd6040518163ffffffff1660e01b815260040160206040518083038186803b1580156200013b57600080fd5b505afa15801562000150573d6000803e3d6000fd5b505050506040513d601f19601f8201168201806040525081019062000176919062000299565b620001829190620002c5565b6004819055505062000417565b8280546200019d906200034f565b90600052602060002090601f016020900481019282620001c157600085556200020d565b82601f10620001dc57805160ff19168380011785556200020d565b828001600101855582156200020d579182015b828111156200020c578251825591602001919060010190620001ef565b5b5090506200021c919062000220565b5090565b5b808211156200023b57600081600090555060010162000221565b5090565b6000815190506200025081620003e3565b92915050565b6000815190506200026781620003fd565b92915050565b6000602082840312156200028057600080fd5b600062000290848285016200023f565b91505092915050565b600060208284031215620002ac57600080fd5b6000620002bc8482850162000256565b91505092915050565b6000620002d28262000345565b9150620002df8362000345565b925082620002f257620002f162000385565b5b828204905092915050565b60006200030a8262000325565b9050919050565b60006200031e82620002fd565b9050919050565b600073ffffffffffffffffffffffffffffffffffffffff82169050919050565b6000819050919050565b600060028204905060018216806200036857607f821691505b602082108114156200037f576200037e620003b4565b5b50919050565b7f4e487b7100000000000000000000000000000000000000000000000000000000600052601260045260246000fd5b7f4e487b7100000000000000000000000000000000000000000000000000000000600052602260045260246000fd5b620003ee8162000311565b8114620003fa57600080fd5b50565b620004088162000345565b81146200041457600080fd5b50565b611af580620004276000396000f3fe60806040526004361061009c5760003560e01c80636c11bcd3116100645780636c11bcd31461018a5780638843e163146101b35780638ba00299146101de578063d0febe4c1461021b578063e9bc63f714610225578063fc0c546a146102625761009c565b806306fdde03146100a15780631acfdc44146100cc5780632942b0c7146101095780632c4e722e1461013457806363962f401461015f575b600080fd5b3480156100ad57600080fd5b506100b661028d565b6040516100c39190611569565b60405180910390f35b3480156100d857600080fd5b506100f360048036038101906100ee91906112d4565b61031b565b60405161010091906115eb565b60405180910390f35b34801561011557600080fd5b5061011e610532565b60405161012b91906115eb565b60405180910390f35b34801561014057600080fd5b50610149610538565b60405161015691906115eb565b60405180910390f35b34801561016b57600080fd5b5061017461053e565b60405161018191906115eb565b60405180910390f35b34801561019657600080fd5b506101b160048036038101906101ac91906112d4565b610544565b005b3480156101bf57600080fd5b506101c86109db565b6040516101d591906115eb565b60405180910390f35b3480156101ea57600080fd5b50610205600480360381019061020091906112d4565b610b0a565b6040516102129190611533565b60405180910390f35b610223610c0f565b005b34801561023157600080fd5b5061024c600480360381019061024791906112d4565b61107e565b6040516102599190611533565b60405180910390f35b34801561026e57600080fd5b50610277611171565b604051610284919061154e565b60405180910390f35b6000805461029a9061184e565b80601f01602080910402602001604051908101604052809291908181526020018280546102c69061184e565b80156103135780601f106102e857610100808354040283529160200191610313565b820191906000526020600020905b8154815290600101906020018083116102f657829003601f168201915b505050505081565b6000600160009054906101000a900473ffffffffffffffffffffffffffffffffffffffff1673ffffffffffffffffffffffffffffffffffffffff166318160ddd6040518163ffffffff1660e01b815260040160206040518083038186803b15801561038557600080fd5b505afa158015610399573d6000803e3d6000fd5b505050506040513d601f19601f820116820180604052508101906103bd91906112fd565b8211156103c957600080fd5b600160009054906101000a900473ffffffffffffffffffffffffffffffffffffffff1673ffffffffffffffffffffffffffffffffffffffff166318160ddd6040518163ffffffff1660e01b815260040160206040518083038186803b15801561043157600080fd5b505afa158015610445573d6000803e3d6000fd5b505050506040513d601f19601f8201168201806040525081019061046991906112fd565b82600160009054906101000a900473ffffffffffffffffffffffffffffffffffffffff1673ffffffffffffffffffffffffffffffffffffffff166318160ddd6040518163ffffffff1660e01b815260040160206040518083038186803b1580156104d257600080fd5b505afa1580156104e6573d6000803e3d6000fd5b505050506040513d601f19601f8201168201806040525081019061050a91906112fd565b610514919061177b565b6002546105219190611721565b61052b91906116f0565b9050919050565b60045481565b60035481565b60025481565b80600160009054906101000a900473ffffffffffffffffffffffffffffffffffffffff1673ffffffffffffffffffffffffffffffffffffffff166370a08231336040518263ffffffff1660e01b81526004016105a09190611473565b60206040518083038186803b1580156105b857600080fd5b505afa1580156105cc573d6000803e3d6000fd5b505050506040513d601f19601f820116820180604052508101906105f091906112fd565b1015610631576040517f08c379a0000000000000000000000000000000000000000000000000000000008152600401610628906115cb565b60405180910390fd5b60003073ffffffffffffffffffffffffffffffffffffffff1663e9bc63f7836040518263ffffffff1660e01b815260040161066c91906115eb565b604080518083038186803b15801561068357600080fd5b505afa158015610697573d6000803e3d6000fd5b505050506040513d601f19601f820116820180604052508101906106bb9190611282565b90503073ffffffffffffffffffffffffffffffffffffffff16318160006002811061070f577f4e487b7100000000000000000000000000000000000000000000000000000000600052603260045260246000fd5b60200201511115610755576040517f08c379a000000000000000000000000000000000000000000000000000000000815260040161074c906115ab565b60405180910390fd5b600160009054906101000a900473ffffffffffffffffffffffffffffffffffffffff1673ffffffffffffffffffffffffffffffffffffffff166323b872dd3330856040518463ffffffff1660e01b81526004016107b49392919061148e565b602060405180830381600087803b1580156107ce57600080fd5b505af11580156107e2573d6000803e3d6000fd5b505050506040513d601f19601f8201168201806040525081019061080691906112ab565b50600160009054906101000a900473ffffffffffffffffffffffffffffffffffffffff1673ffffffffffffffffffffffffffffffffffffffff16631accb89e836040518263ffffffff1660e01b815260040161086291906115eb565b602060405180830381600087803b15801561087c57600080fd5b505af1158015610890573d6000803e3d6000fd5b505050506040513d601f19601f820116820180604052508101906108b491906112ab565b503373ffffffffffffffffffffffffffffffffffffffff166108fc82600060028110610909577f4e487b7100000000000000000000000000000000000000000000000000000000600052603260045260246000fd5b60200201519081150290604051600060405180830381858888f19350505050158015610939573d6000803e3d6000fd5b507fa8a7473f10e62cf9687e243de1c3ac8b3cbc3dd04b96826beb3a65b59538581433600160009054906101000a900473ffffffffffffffffffffffffffffffffffffffff1684846001600281106109ba577f4e487b7100000000000000000000000000000000000000000000000000000000600052603260045260246000fd5b60200201516040516109cf94939291906114c5565b60405180910390a15050565b60003073ffffffffffffffffffffffffffffffffffffffff16631acfdc44600160009054906101000a900473ffffffffffffffffffffffffffffffffffffffff1673ffffffffffffffffffffffffffffffffffffffff16639358928b6040518163ffffffff1660e01b815260040160206040518083038186803b158015610a6157600080fd5b505afa158015610a75573d6000803e3d6000fd5b505050506040513d601f19601f82011682018060405250810190610a9991906112fd565b6040518263ffffffff1660e01b8152600401610ab591906115eb565b60206040518083038186803b158015610acd57600080fd5b505afa158015610ae1573d6000803e3d6000fd5b505050506040513d601f19601f82011682018060405250810190610b0591906112fd565b905090565b610b12611197565b6000610be5600284610b226109db565b610b2c9190611721565b610b3691906116f0565b600160009054906101000a900473ffffffffffffffffffffffffffffffffffffffff1673ffffffffffffffffffffffffffffffffffffffff16639358928b6040518163ffffffff1660e01b815260040160206040518083038186803b158015610b9e57600080fd5b505afa158015610bb2573d6000803e3d6000fd5b505050506040513d601f19601f82011682018060405250810190610bd691906112fd565b610be0919061169a565b61031b565b905060405180604001604052808285610bfe9190611721565b815260200182815250915050919050565b60003073ffffffffffffffffffffffffffffffffffffffff16638ba00299346040518263ffffffff1660e01b8152600401610c4a91906115eb565b604080518083038186803b158015610c6157600080fd5b505afa158015610c75573d6000803e3d6000fd5b505050506040513d601f19601f82011682018060405250810190610c999190611282565b9050600160009054906101000a900473ffffffffffffffffffffffffffffffffffffffff1673ffffffffffffffffffffffffffffffffffffffff166370a08231306040518263ffffffff1660e01b8152600401610cf69190611473565b60206040518083038186803b158015610d0e57600080fd5b505afa158015610d22573d6000803e3d6000fd5b505050506040513d601f19601f82011682018060405250810190610d4691906112fd565b81600060028110610d80577f4e487b7100000000000000000000000000000000000000000000000000000000600052603260045260246000fd5b60200201511115610dc6576040517f08c379a0000000000000000000000000000000000000000000000000000000008152600401610dbd9061158b565b60405180910390fd5b600160009054906101000a900473ffffffffffffffffffffffffffffffffffffffff1673ffffffffffffffffffffffffffffffffffffffff1663a9059cbb3383600060028110610e3f577f4e487b7100000000000000000000000000000000000000000000000000000000600052603260045260246000fd5b60200201516040518363ffffffff1660e01b8152600401610e6192919061150a565b602060405180830381600087803b158015610e7b57600080fd5b505af1158015610e8f573d6000803e3d6000fd5b505050506040513d601f19601f82011682018060405250810190610eb391906112ab565b50600160009054906101000a900473ffffffffffffffffffffffffffffffffffffffff1673ffffffffffffffffffffffffffffffffffffffff16635ed5128e82600060028110610f2c577f4e487b7100000000000000000000000000000000000000000000000000000000600052603260045260246000fd5b60200201516040518263ffffffff1660e01b8152600401610f4d91906115eb565b602060405180830381600087803b158015610f6757600080fd5b505af1158015610f7b573d6000803e3d6000fd5b505050506040513d601f19601f82011682018060405250810190610f9f91906112ab565b507f623b3804fa71d67900d064613da8f94b9617215ee90799290593e1745087ad1833600160009054906101000a900473ffffffffffffffffffffffffffffffffffffffff168360006002811061101f577f4e487b7100000000000000000000000000000000000000000000000000000000600052603260045260246000fd5b60200201518460016002811061105e577f4e487b7100000000000000000000000000000000000000000000000000000000600052603260045260246000fd5b602002015160405161107394939291906114c5565b60405180910390a150565b611086611197565b600061114760028461109891906116f0565b600160009054906101000a900473ffffffffffffffffffffffffffffffffffffffff1673ffffffffffffffffffffffffffffffffffffffff16639358928b6040518163ffffffff1660e01b815260040160206040518083038186803b15801561110057600080fd5b505afa158015611114573d6000803e3d6000fd5b505050506040513d601f19601f8201168201806040525081019061113891906112fd565b611142919061177b565b61031b565b90506040518060400160405280828561116091906116f0565b815260200182815250915050919050565b600160009054906101000a900473ffffffffffffffffffffffffffffffffffffffff1681565b6040518060400160405280600290602082028036833780820191505090505090565b60006111cc6111c78461162b565b611606565b905080828560208602820111156111e257600080fd5b60005b8581101561121257816111f8888261126d565b8452602084019350602083019250506001810190506111e5565b5050509392505050565b600082601f83011261122d57600080fd5b600261123a8482856111b9565b91505092915050565b60008151905061125281611a91565b92915050565b60008135905061126781611aa8565b92915050565b60008151905061127c81611aa8565b92915050565b60006040828403121561129457600080fd5b60006112a28482850161121c565b91505092915050565b6000602082840312156112bd57600080fd5b60006112cb84828501611243565b91505092915050565b6000602082840312156112e657600080fd5b60006112f484828501611258565b91505092915050565b60006020828403121561130f57600080fd5b600061131d8482850161126d565b91505092915050565b60006113328383611455565b60208301905092915050565b611347816117af565b82525050565b6113568161165b565b611360818461167e565b925061136b82611651565b8060005b8381101561139c5781516113838782611326565b965061138e83611671565b92505060018101905061136f565b505050505050565b6113ad816117f7565b82525050565b60006113be82611666565b6113c88185611689565b93506113d881856020860161181b565b6113e18161196d565b840191505092915050565b60006113f9604183611689565b91506114048261197e565b606082019050919050565b600061141c603c83611689565b9150611427826119f3565b604082019050919050565b600061143f602883611689565b915061144a82611a42565b604082019050919050565b61145e816117ed565b82525050565b61146d816117ed565b82525050565b6000602082019050611488600083018461133e565b92915050565b60006060820190506114a3600083018661133e565b6114b0602083018561133e565b6114bd6040830184611464565b949350505050565b60006080820190506114da600083018761133e565b6114e7602083018661133e565b6114f46040830185611464565b6115016060830184611464565b95945050505050565b600060408201905061151f600083018561133e565b61152c6020830184611464565b9392505050565b6000604082019050611548600083018461134d565b92915050565b600060208201905061156360008301846113a4565b92915050565b6000602082019050818103600083015261158381846113b3565b905092915050565b600060208201905081810360008301526115a4816113ec565b9050919050565b600060208201905081810360008301526115c48161140f565b9050919050565b600060208201905081810360008301526115e481611432565b9050919050565b60006020820190506116006000830184611464565b92915050565b6000611610611621565b905061161c8282611880565b919050565b6000604051905090565b600067ffffffffffffffff8211156116465761164561193e565b5b602082029050919050565b6000819050919050565b600060029050919050565b600081519050919050565b6000602082019050919050565b600081905092915050565b600082825260208201905092915050565b60006116a5826117ed565b91506116b0836117ed565b9250827fffffffffffffffffffffffffffffffffffffffffffffffffffffffffffffffff038211156116e5576116e46118b1565b5b828201905092915050565b60006116fb826117ed565b9150611706836117ed565b925082611716576117156118e0565b5b828204905092915050565b600061172c826117ed565b9150611737836117ed565b9250817fffffffffffffffffffffffffffffffffffffffffffffffffffffffffffffffff04831182151516156117705761176f6118b1565b5b828202905092915050565b6000611786826117ed565b9150611791836117ed565b9250828210156117a4576117a36118b1565b5b828203905092915050565b60006117ba826117cd565b9050919050565b60008115159050919050565b600073ffffffffffffffffffffffffffffffffffffffff82169050919050565b6000819050919050565b600061180282611809565b9050919050565b6000611814826117cd565b9050919050565b60005b8381101561183957808201518184015260208101905061181e565b83811115611848576000848401525b50505050565b6000600282049050600182168061186657607f821691505b6020821081141561187a5761187961190f565b5b50919050565b6118898261196d565b810181811067ffffffffffffffff821117156118a8576118a761193e565b5b80604052505050565b7f4e487b7100000000000000000000000000000000000000000000000000000000600052601160045260246000fd5b7f4e487b7100000000000000000000000000000000000000000000000000000000600052601260045260246000fd5b7f4e487b7100000000000000000000000000000000000000000000000000000000600052602260045260246000fd5b7f4e487b7100000000000000000000000000000000000000000000000000000000600052604160045260246000fd5b6000601f19601f8301169050919050565b7f496e76616c696420616d6f756e74206f6620746f6b656e73207075726368617360008201527f6564206172652067726561746572207468616e20657868616e67652066756e6460208201527f7300000000000000000000000000000000000000000000000000000000000000604082015250565b7f496e76616c696420616d6f756e74206f6620746f6b656e7320736f6c6420617260008201527f652067726561746572207468616e20657868616e67652066756e647300000000602082015250565b7f5573657220646f6573206e6f742068617665207375636820616d6f756e74206f60008201527f6620746f6b656e73000000000000000000000000000000000000000000000000602082015250565b611a9a816117c1565b8114611aa557600080fd5b50565b611ab1816117ed565b8114611abc57600080fd5b5056fea2646970667358221220d74d07a98a90cd42e5247ae6d5a54b76ddf3e45d0518593cd793d12f40bb65bb64736f6c63430008030033",
  "immutableReferences": {},
  "source": "// SPDX-License-Identifier: MIT\r\npragma solidity ^0.8.3;\r\n\r\nimport \"./SMTKToken.sol\";\r\n\r\n contract BnbSwap {\r\n    string public name = \"BnbSwap Instant Exchange\";\r\n    SMTKToken public token;\r\n    uint256 public upRate;\r\n    uint256 public rate;\r\n    uint256 public minTokenTrade;\r\n    uint128 constant decimalPart = 1 * 10 ** 18;\r\n    // Redention rate = # of token they receive from 1 ether\r\n\r\n    event TokenPurchase(\r\n        address account,\r\n        address token,\r\n        uint256 amount,\r\n        uint256 rate\r\n    );\r\n\r\n    event TokenSold(\r\n        address account,\r\n        address token,\r\n        uint256 amount,\r\n        uint256 rate\r\n    );\r\n\r\n    constructor(SMTKToken _token){\r\n        token = _token;\r\n        upRate = 9192;\r\n        minTokenTrade = token.totalSupply()/upRate;\r\n    }\r\n\r\n    function buyTokens() public payable{\r\n        // tokenAmount = Amount of etheriem * Redemption rate\r\n        uint256[2] memory buyInfo = this.getBuyInfo(msg.value);\r\n\r\n        require(buyInfo[0] <= token.balanceOf(address(this)), \"Invalid amount of tokens purchased are greater than exhange funds\");\r\n\r\n        token.transfer(msg.sender, buyInfo[0]);\r\n        SMTKToken(token).addCirculatingSupply(buyInfo[0]);\r\n        emit TokenPurchase(msg.sender, address(token), buyInfo[0], buyInfo[1]);\r\n    }\r\n\r\n    function sellTokens(uint256 _amountSMTK) public{\r\n        // User can sell more tokens than they have\r\n        require(token.balanceOf(msg.sender) >= _amountSMTK, \"User does not have such amount of tokens\");\r\n\r\n        // Calculate the ether amount to redeem\r\n        uint256[2] memory sellInfo = this.getSellInfo(_amountSMTK);\r\n\r\n        require(sellInfo[0] <= address(this).balance, \"Invalid amount of tokens sold are greater than exhange funds\");\r\n\r\n        token.transferFrom(msg.sender, address(this), _amountSMTK);\r\n        token.removeCirculatingSupply(_amountSMTK);\r\n        payable(msg.sender).transfer(sellInfo[0]);\r\n        emit TokenSold(msg.sender, address(token), _amountSMTK, sellInfo[1]);\r\n        \r\n    }\r\n\r\n    function getBuyInfo(uint256 _AmountBNB) public view returns (uint256[2] memory sellInfo){\r\n        uint256 estimatedRate = getEstimatedRateBuySell(token.circulatingSupply()+(getEstimatedRateBuySell()*_AmountBNB)/2);\r\n        sellInfo = [_AmountBNB*estimatedRate, estimatedRate];\r\n        return sellInfo;\r\n    }\r\n\r\n    function getSellInfo(uint256 _amountSMTK) public view returns (uint256[2] memory buyInfo){\r\n        uint256 estimatedRate = getEstimatedRateBuySell(token.circulatingSupply()-(_amountSMTK/2));\r\n        buyInfo = [_amountSMTK/estimatedRate, estimatedRate];\r\n        return buyInfo;\r\n    }\r\n\r\n    // estimated rate to buy [totalSupply/upRate] SMTK --> minToken SMTK (minimum by default)\r\n    function getEstimatedRateBuySell(uint256 _circulatingSupply) public view returns(uint256){\r\n        require(_circulatingSupply <= token.totalSupply());\r\n        return upRate*(token.totalSupply()-_circulatingSupply)/token.totalSupply();\r\n    }\r\n\r\n    function getEstimatedRateBuySell() public view returns(uint256){\r\n        return this.getEstimatedRateBuySell(token.circulatingSupply());\r\n    }\r\n\r\n}",
  "sourcePath": "U:/Cancio/Documents/Smart-Token/ethSwap/src/contracts/BnbSwap.sol",
  "compiler": {
    "name": "solc",
    "version": "0.8.3+commit.8d00100c.Emscripten.clang"
  },
  "schemaVersion": "3.3.4",
  "updatedAt": "2021-04-21T02:25:49.063Z",
  "networkType": "ethereum",
  "devdoc": {
    "kind": "dev",
    "methods": {},
    "version": 1
  },
  "userdoc": {
    "kind": "user",
    "methods": {},
    "version": 1
  }
}