{
  "contractName": "BnbSwap",
  "abi": [
    {
      "inputs": [
        {
          "internalType": "contract Token",
          "name": "_token",
          "type": "address"
        }
      ],
      "payable": false,
      "stateMutability": "nonpayable",
      "type": "constructor"
    },
    {
      "anonymous": false,
      "inputs": [
        {
          "indexed": false,
          "internalType": "address",
          "name": "account",
          "type": "address"
        },
        {
          "indexed": false,
          "internalType": "address",
          "name": "token",
          "type": "address"
        },
        {
          "indexed": false,
          "internalType": "uint256",
          "name": "amount",
          "type": "uint256"
        },
        {
          "indexed": false,
          "internalType": "uint256",
          "name": "rate",
          "type": "uint256"
        }
      ],
      "name": "TokenPurchase",
      "type": "event"
    },
    {
      "anonymous": false,
      "inputs": [
        {
          "indexed": false,
          "internalType": "address",
          "name": "account",
          "type": "address"
        },
        {
          "indexed": false,
          "internalType": "address",
          "name": "token",
          "type": "address"
        },
        {
          "indexed": false,
          "internalType": "uint256",
          "name": "amount",
          "type": "uint256"
        },
        {
          "indexed": false,
          "internalType": "uint256",
          "name": "rate",
          "type": "uint256"
        }
      ],
      "name": "TokenSold",
      "type": "event"
    },
    {
      "constant": true,
      "inputs": [],
      "name": "minTokenTrade",
      "outputs": [
        {
          "internalType": "uint256",
          "name": "",
          "type": "uint256"
        }
      ],
      "payable": false,
      "stateMutability": "view",
      "type": "function"
    },
    {
      "constant": true,
      "inputs": [],
      "name": "name",
      "outputs": [
        {
          "internalType": "string",
          "name": "",
          "type": "string"
        }
      ],
      "payable": false,
      "stateMutability": "view",
      "type": "function"
    },
    {
      "constant": true,
      "inputs": [],
      "name": "rate",
      "outputs": [
        {
          "internalType": "uint256",
          "name": "",
          "type": "uint256"
        }
      ],
      "payable": false,
      "stateMutability": "view",
      "type": "function"
    },
    {
      "constant": true,
      "inputs": [],
      "name": "token",
      "outputs": [
        {
          "internalType": "contract Token",
          "name": "",
          "type": "address"
        }
      ],
      "payable": false,
      "stateMutability": "view",
      "type": "function"
    },
    {
      "constant": true,
      "inputs": [],
      "name": "upRate",
      "outputs": [
        {
          "internalType": "uint256",
          "name": "",
          "type": "uint256"
        }
      ],
      "payable": false,
      "stateMutability": "view",
      "type": "function"
    },
    {
      "constant": false,
      "inputs": [],
      "name": "buyTokens",
      "outputs": [],
      "payable": true,
      "stateMutability": "payable",
      "type": "function"
    },
    {
      "constant": false,
      "inputs": [
        {
          "internalType": "uint256",
          "name": "_amountSMTK",
          "type": "uint256"
        }
      ],
      "name": "sellTokens",
      "outputs": [],
      "payable": false,
      "stateMutability": "nonpayable",
      "type": "function"
    },
    {
      "constant": true,
      "inputs": [
        {
          "internalType": "uint256",
          "name": "_AmountBNB",
          "type": "uint256"
        }
      ],
      "name": "getBuyInfo",
      "outputs": [
        {
          "internalType": "uint256[2]",
          "name": "sellInfo",
          "type": "uint256[2]"
        }
      ],
      "payable": false,
      "stateMutability": "view",
      "type": "function"
    },
    {
      "constant": true,
      "inputs": [
        {
          "internalType": "uint256",
          "name": "_amountSMTK",
          "type": "uint256"
        }
      ],
      "name": "getSellInfo",
      "outputs": [
        {
          "internalType": "uint256[2]",
          "name": "buyInfo",
          "type": "uint256[2]"
        }
      ],
      "payable": false,
      "stateMutability": "view",
      "type": "function"
    },
    {
      "constant": true,
      "inputs": [
        {
          "internalType": "uint256",
          "name": "_circulatingSupply",
          "type": "uint256"
        }
      ],
      "name": "getEstimatedRateBuySell",
      "outputs": [
        {
          "internalType": "uint256",
          "name": "",
          "type": "uint256"
        }
      ],
      "payable": false,
      "stateMutability": "view",
      "type": "function"
    },
    {
      "constant": true,
      "inputs": [],
      "name": "getEstimatedRateBuySell",
      "outputs": [
        {
          "internalType": "uint256",
          "name": "",
          "type": "uint256"
        }
      ],
      "payable": false,
      "stateMutability": "view",
      "type": "function"
    }
  ],
  "bytecode": "0x60806040526040518060400160405280601881526020017f426e625377617020496e7374616e742045786368616e6765000000000000000081525060009080519060200190620000519291906200019f565b503480156200005f57600080fd5b50604051620016d3380380620016d3833981810160405260208110156200008557600080fd5b810190808051906020019092919050505080600160006101000a81548173ffffffffffffffffffffffffffffffffffffffff021916908373ffffffffffffffffffffffffffffffffffffffff160217905550612000600281905550600254600160009054906101000a900473ffffffffffffffffffffffffffffffffffffffff1673ffffffffffffffffffffffffffffffffffffffff166318160ddd6040518163ffffffff1660e01b815260040160206040518083038186803b1580156200014c57600080fd5b505afa15801562000161573d6000803e3d6000fd5b505050506040513d60208110156200017857600080fd5b8101908080519060200190929190505050816200019157fe5b04600481905550506200024e565b828054600181600116156101000203166002900490600052602060002090601f016020900481019282601f10620001e257805160ff191683800117855562000213565b8280016001018555821562000213579182015b8281111562000212578251825591602001919060010190620001f5565b5b50905062000222919062000226565b5090565b6200024b91905b80821115620002475760008160009055506001016200022d565b5090565b90565b611475806200025e6000396000f3fe60806040526004361061009c5760003560e01c80636c11bcd3116100645780636c11bcd3146102015780638843e1631461023c5780638ba0029914610267578063d0febe4c146102de578063e9bc63f7146102e8578063fc0c546a1461035f5761009c565b806306fdde03146100a15780631acfdc44146101315780632942b0c7146101805780632c4e722e146101ab57806363962f40146101d6575b600080fd5b3480156100ad57600080fd5b506100b66103b6565b6040518080602001828103825283818151815260200191508051906020019080838360005b838110156100f65780820151818401526020810190506100db565b50505050905090810190601f1680156101235780820380516001836020036101000a031916815260200191505b509250505060405180910390f35b34801561013d57600080fd5b5061016a6004803603602081101561015457600080fd5b8101908080359060200190929190505050610454565b6040518082815260200191505060405180910390f35b34801561018c57600080fd5b50610195610660565b6040518082815260200191505060405180910390f35b3480156101b757600080fd5b506101c0610666565b6040518082815260200191505060405180910390f35b3480156101e257600080fd5b506101eb61066c565b6040518082815260200191505060405180910390f35b34801561020d57600080fd5b5061023a6004803603602081101561022457600080fd5b8101908080359060200190929190505050610672565b005b34801561024857600080fd5b50610251610bc0565b6040518082815260200191505060405180910390f35b34801561027357600080fd5b506102a06004803603602081101561028a57600080fd5b8101908080359060200190929190505050610cf5565b6040518082600260200280838360005b838110156102cb5780820151818401526020810190506102b0565b5050505090500191505060405180910390f35b6102e6610de3565b005b3480156102f457600080fd5b506103216004803603602081101561030b57600080fd5b8101908080359060200190929190505050611267565b6040518082600260200280838360005b8381101561034c578082015181840152602081019050610331565b5050505090500191505060405180910390f35b34801561036b57600080fd5b50610374611353565b604051808273ffffffffffffffffffffffffffffffffffffffff1673ffffffffffffffffffffffffffffffffffffffff16815260200191505060405180910390f35b60008054600181600116156101000203166002900480601f01602080910402602001604051908101604052809291908181526020018280546001816001161561010002031660029004801561044c5780601f106104215761010080835404028352916020019161044c565b820191906000526020600020905b81548152906001019060200180831161042f57829003601f168201915b505050505081565b6000600160009054906101000a900473ffffffffffffffffffffffffffffffffffffffff1673ffffffffffffffffffffffffffffffffffffffff166318160ddd6040518163ffffffff1660e01b815260040160206040518083038186803b1580156104be57600080fd5b505afa1580156104d2573d6000803e3d6000fd5b505050506040513d60208110156104e857600080fd5b810190808051906020019092919050505082111561050557600080fd5b600160009054906101000a900473ffffffffffffffffffffffffffffffffffffffff1673ffffffffffffffffffffffffffffffffffffffff166318160ddd6040518163ffffffff1660e01b815260040160206040518083038186803b15801561056d57600080fd5b505afa158015610581573d6000803e3d6000fd5b505050506040513d602081101561059757600080fd5b810190808051906020019092919050505082600160009054906101000a900473ffffffffffffffffffffffffffffffffffffffff1673ffffffffffffffffffffffffffffffffffffffff166318160ddd6040518163ffffffff1660e01b815260040160206040518083038186803b15801561061157600080fd5b505afa158015610625573d6000803e3d6000fd5b505050506040513d602081101561063b57600080fd5b810190808051906020019092919050505003600254028161065857fe5b049050919050565b60045481565b60035481565b60025481565b80600160009054906101000a900473ffffffffffffffffffffffffffffffffffffffff1673ffffffffffffffffffffffffffffffffffffffff166370a08231336040518263ffffffff1660e01b8152600401808273ffffffffffffffffffffffffffffffffffffffff1673ffffffffffffffffffffffffffffffffffffffff16815260200191505060206040518083038186803b15801561071257600080fd5b505afa158015610726573d6000803e3d6000fd5b505050506040513d602081101561073c57600080fd5b810190808051906020019092919050505010156107a4576040517f08c379a00000000000000000000000000000000000000000000000000000000081526004018080602001828103825260288152602001806114196028913960400191505060405180910390fd5b6107ac611379565b3073ffffffffffffffffffffffffffffffffffffffff1663e9bc63f7836040518263ffffffff1660e01b815260040180828152602001915050604080518083038186803b1580156107fc57600080fd5b505afa158015610810573d6000803e3d6000fd5b505050506040513d601f19601f82011682018060405250604081101561083557600080fd5b810190809190505090503073ffffffffffffffffffffffffffffffffffffffff16318160006002811061086457fe5b602002015111156108c0576040517f08c379a000000000000000000000000000000000000000000000000000000000815260040180806020018281038252603c8152602001806113dd603c913960400191505060405180910390fd5b600160009054906101000a900473ffffffffffffffffffffffffffffffffffffffff1673ffffffffffffffffffffffffffffffffffffffff166323b872dd3330856040518463ffffffff1660e01b8152600401808473ffffffffffffffffffffffffffffffffffffffff1673ffffffffffffffffffffffffffffffffffffffff1681526020018373ffffffffffffffffffffffffffffffffffffffff1673ffffffffffffffffffffffffffffffffffffffff1681526020018281526020019350505050602060405180830381600087803b15801561099d57600080fd5b505af11580156109b1573d6000803e3d6000fd5b505050506040513d60208110156109c757600080fd5b810190808051906020019092919050505050600160009054906101000a900473ffffffffffffffffffffffffffffffffffffffff1673ffffffffffffffffffffffffffffffffffffffff16631accb89e836040518263ffffffff1660e01b815260040180828152602001915050602060405180830381600087803b158015610a4e57600080fd5b505af1158015610a62573d6000803e3d6000fd5b505050506040513d6020811015610a7857600080fd5b8101908080519060200190929190505050503373ffffffffffffffffffffffffffffffffffffffff166108fc82600060028110610ab157fe5b60200201519081150290604051600060405180830381858888f19350505050158015610ae1573d6000803e3d6000fd5b507fa8a7473f10e62cf9687e243de1c3ac8b3cbc3dd04b96826beb3a65b59538581433600160009054906101000a900473ffffffffffffffffffffffffffffffffffffffff168484600160028110610b3557fe5b6020020151604051808573ffffffffffffffffffffffffffffffffffffffff1673ffffffffffffffffffffffffffffffffffffffff1681526020018473ffffffffffffffffffffffffffffffffffffffff1673ffffffffffffffffffffffffffffffffffffffff16815260200183815260200182815260200194505050505060405180910390a15050565b60003073ffffffffffffffffffffffffffffffffffffffff16631acfdc44600160009054906101000a900473ffffffffffffffffffffffffffffffffffffffff1673ffffffffffffffffffffffffffffffffffffffff16639358928b6040518163ffffffff1660e01b815260040160206040518083038186803b158015610c4657600080fd5b505afa158015610c5a573d6000803e3d6000fd5b505050506040513d6020811015610c7057600080fd5b81019080805190602001909291905050506040518263ffffffff1660e01b81526004018082815260200191505060206040518083038186803b158015610cb557600080fd5b505afa158015610cc9573d6000803e3d6000fd5b505050506040513d6020811015610cdf57600080fd5b8101908080519060200190929190505050905090565b610cfd611379565b6000610dbf600284610d0d610bc0565b0281610d1557fe5b04600160009054906101000a900473ffffffffffffffffffffffffffffffffffffffff1673ffffffffffffffffffffffffffffffffffffffff16639358928b6040518163ffffffff1660e01b815260040160206040518083038186803b158015610d7e57600080fd5b505afa158015610d92573d6000803e3d6000fd5b505050506040513d6020811015610da857600080fd5b810190808051906020019092919050505001610454565b90506040518060400160405280828502815260200182815250915081915050919050565b610deb611379565b3073ffffffffffffffffffffffffffffffffffffffff16638ba00299346040518263ffffffff1660e01b815260040180828152602001915050604080518083038186803b158015610e3b57600080fd5b505afa158015610e4f573d6000803e3d6000fd5b505050506040513d601f19601f820116820180604052506040811015610e7457600080fd5b81019080919050509050600160009054906101000a900473ffffffffffffffffffffffffffffffffffffffff1673ffffffffffffffffffffffffffffffffffffffff166370a08231306040518263ffffffff1660e01b8152600401808273ffffffffffffffffffffffffffffffffffffffff1673ffffffffffffffffffffffffffffffffffffffff16815260200191505060206040518083038186803b158015610f1d57600080fd5b505afa158015610f31573d6000803e3d6000fd5b505050506040513d6020811015610f4757600080fd5b810190808051906020019092919050505081600060028110610f6557fe5b60200201511115610fc1576040517f08c379a000000000000000000000000000000000000000000000000000000000815260040180806020018281038252604181526020018061139c6041913960600191505060405180910390fd5b600160009054906101000a900473ffffffffffffffffffffffffffffffffffffffff1673ffffffffffffffffffffffffffffffffffffffff1663a9059cbb338360006002811061100d57fe5b60200201516040518363ffffffff1660e01b8152600401808373ffffffffffffffffffffffffffffffffffffffff1673ffffffffffffffffffffffffffffffffffffffff16815260200182815260200192505050602060405180830381600087803b15801561107b57600080fd5b505af115801561108f573d6000803e3d6000fd5b505050506040513d60208110156110a557600080fd5b810190808051906020019092919050505050600160009054906101000a900473ffffffffffffffffffffffffffffffffffffffff1673ffffffffffffffffffffffffffffffffffffffff16635ed5128e8260006002811061110257fe5b60200201516040518263ffffffff1660e01b815260040180828152602001915050602060405180830381600087803b15801561113d57600080fd5b505af1158015611151573d6000803e3d6000fd5b505050506040513d602081101561116757600080fd5b8101908080519060200190929190505050507f623b3804fa71d67900d064613da8f94b9617215ee90799290593e1745087ad1833600160009054906101000a900473ffffffffffffffffffffffffffffffffffffffff16836000600281106111cb57fe5b6020020151846001600281106111dd57fe5b6020020151604051808573ffffffffffffffffffffffffffffffffffffffff1673ffffffffffffffffffffffffffffffffffffffff1681526020018473ffffffffffffffffffffffffffffffffffffffff1673ffffffffffffffffffffffffffffffffffffffff16815260200183815260200182815260200194505050505060405180910390a150565b61126f611379565b60006113286002848161127e57fe5b04600160009054906101000a900473ffffffffffffffffffffffffffffffffffffffff1673ffffffffffffffffffffffffffffffffffffffff16639358928b6040518163ffffffff1660e01b815260040160206040518083038186803b1580156112e757600080fd5b505afa1580156112fb573d6000803e3d6000fd5b505050506040513d602081101561131157600080fd5b810190808051906020019092919050505003610454565b9050604051806040016040528082858161133e57fe5b04815260200182815250915081915050919050565b600160009054906101000a900473ffffffffffffffffffffffffffffffffffffffff1681565b604051806040016040528060029060208202803883398082019150509050509056fe496e76616c696420616d6f756e74206f6620746f6b656e7320707572636861736564206172652067726561746572207468616e20657868616e67652066756e6473496e76616c696420616d6f756e74206f6620746f6b656e7320736f6c64206172652067726561746572207468616e20657868616e67652066756e64735573657220646f6573206e6f742068617665207375636820616d6f756e74206f6620746f6b656e73a265627a7a7231582002b29c2e78518baa4932f955e42050a7d5e8c20fa0d6fe0cd0f025bc6800412f64736f6c63430005100032",
  "source": "pragma solidity ^0.5.16;\r\n\r\nimport \"./Token.sol\";\r\n\r\n contract BnbSwap {\r\n    string public name = \"BnbSwap Instant Exchange\";\r\n    Token public token;\r\n    uint256 public upRate;\r\n    uint256 public rate;\r\n    uint256 public minTokenTrade;\r\n    uint128 constant decimalPart = 1 * 10 ** 18;\r\n    // Redention rate = # of token they receive from 1 ether\r\n\r\n    event TokenPurchase(\r\n        address account,\r\n        address token,\r\n        uint256 amount,\r\n        uint256 rate\r\n    );\r\n\r\n    event TokenSold(\r\n        address account,\r\n        address token,\r\n        uint256 amount,\r\n        uint256 rate\r\n    );\r\n\r\n    constructor(Token _token) public{\r\n        token = _token;\r\n        upRate = 8192;\r\n        minTokenTrade = token.totalSupply()/upRate;\r\n    }\r\n\r\n    function buyTokens() public payable{\r\n        // tokenAmount = Amount of etheriem * Redemption rate\r\n        uint256[2] memory buyInfo = this.getBuyInfo(msg.value);\r\n\r\n        require(buyInfo[0] <= token.balanceOf(address(this)), \"Invalid amount of tokens purchased are greater than exhange funds\");\r\n\r\n        token.transfer(msg.sender, buyInfo[0]);\r\n        token.addCirculatingSupply(buyInfo[0]);\r\n        emit TokenPurchase(msg.sender, address(token), buyInfo[0], buyInfo[1]);\r\n    }\r\n\r\n    function sellTokens(uint256 _amountSMTK) public{\r\n        // User can sell more tokens than they have\r\n        require(token.balanceOf(msg.sender) >= _amountSMTK, \"User does not have such amount of tokens\");\r\n\r\n        // Calculate the ether amount to redeem\r\n        uint256[2] memory sellInfo = this.getSellInfo(_amountSMTK);\r\n\r\n        require(sellInfo[0] <= address(this).balance, \"Invalid amount of tokens sold are greater than exhange funds\");\r\n\r\n        token.transferFrom(msg.sender, address(this), _amountSMTK);\r\n        token.removeCirculatingSupply(_amountSMTK);\r\n        msg.sender.transfer(sellInfo[0]);\r\n        emit TokenSold(msg.sender, address(token), _amountSMTK, sellInfo[1]);\r\n        \r\n    }\r\n\r\n    function getBuyInfo(uint256 _AmountBNB) public view returns (uint256[2] memory sellInfo){\r\n        uint256 estimatedRate = getEstimatedRateBuySell(token.circulatingSupply()+(getEstimatedRateBuySell()*_AmountBNB)/2);\r\n        sellInfo = [_AmountBNB*estimatedRate, estimatedRate];\r\n        return sellInfo;\r\n    }\r\n\r\n    function getSellInfo(uint256 _amountSMTK) public view returns (uint256[2] memory buyInfo){\r\n        uint256 estimatedRate = getEstimatedRateBuySell(token.circulatingSupply()-(_amountSMTK/2));\r\n        buyInfo = [_amountSMTK/estimatedRate, estimatedRate];\r\n        return buyInfo;\r\n    }\r\n\r\n    // estimated rate to buy [totalSupply/upRate] SMTK --> minToken SMTK (minimum by default)\r\n    function getEstimatedRateBuySell(uint256 _circulatingSupply) public view returns(uint256){\r\n        require(_circulatingSupply <= token.totalSupply());\r\n        return upRate*(token.totalSupply()-_circulatingSupply)/token.totalSupply();\r\n    }\r\n\r\n    function getEstimatedRateBuySell() public view returns(uint256){\r\n        return this.getEstimatedRateBuySell(token.circulatingSupply());\r\n    }\r\n\r\n}",
  "sourcePath": "U:\\Cancio\\Documents\\Smart-Token\\ethSwap\\src\\contracts\\BnbSwap.sol",
  "compiler": {
    "name": "solc",
    "version": "0.5.16+commit.9c3226ce.Emscripten.clang"
  },
  "schemaVersion": "3.0.23",
  "updatedAt": "2021-04-20T14:32:02.444Z",
  "networkType": "ethereum",
  "devdoc": {
    "methods": {}
  },
  "userdoc": {
    "methods": {}
  }
}