{
  "contractName": "EthSwap",
  "abi": [
    {
      "inputs": [
        {
          "internalType": "contract Token",
          "name": "_token",
          "type": "address"
        }
      ],
      "payable": false,
      "stateMutability": "nonpayable",
      "type": "constructor"
    },
    {
      "anonymous": false,
      "inputs": [
        {
          "indexed": false,
          "internalType": "address",
          "name": "account",
          "type": "address"
        },
        {
          "indexed": false,
          "internalType": "address",
          "name": "token",
          "type": "address"
        },
        {
          "indexed": false,
          "internalType": "uint256",
          "name": "amount",
          "type": "uint256"
        },
        {
          "indexed": false,
          "internalType": "uint256",
          "name": "rate",
          "type": "uint256"
        }
      ],
      "name": "TokenPurchase",
      "type": "event"
    },
    {
      "constant": true,
      "inputs": [],
      "name": "minTokenTrade",
      "outputs": [
        {
          "internalType": "uint256",
          "name": "",
          "type": "uint256"
        }
      ],
      "payable": false,
      "stateMutability": "view",
      "type": "function"
    },
    {
      "constant": true,
      "inputs": [],
      "name": "name",
      "outputs": [
        {
          "internalType": "string",
          "name": "",
          "type": "string"
        }
      ],
      "payable": false,
      "stateMutability": "view",
      "type": "function"
    },
    {
      "constant": true,
      "inputs": [],
      "name": "rate",
      "outputs": [
        {
          "internalType": "uint256",
          "name": "",
          "type": "uint256"
        }
      ],
      "payable": false,
      "stateMutability": "view",
      "type": "function"
    },
    {
      "constant": true,
      "inputs": [],
      "name": "token",
      "outputs": [
        {
          "internalType": "contract Token",
          "name": "",
          "type": "address"
        }
      ],
      "payable": false,
      "stateMutability": "view",
      "type": "function"
    },
    {
      "constant": true,
      "inputs": [],
      "name": "upRate",
      "outputs": [
        {
          "internalType": "uint256",
          "name": "",
          "type": "uint256"
        }
      ],
      "payable": false,
      "stateMutability": "view",
      "type": "function"
    },
    {
      "constant": false,
      "inputs": [],
      "name": "buyTokens",
      "outputs": [],
      "payable": true,
      "stateMutability": "payable",
      "type": "function"
    },
    {
      "constant": true,
      "inputs": [
        {
          "internalType": "uint256",
          "name": "_amount",
          "type": "uint256"
        }
      ],
      "name": "getBuyInfo",
      "outputs": [
        {
          "internalType": "uint256[2]",
          "name": "purchaseInfo",
          "type": "uint256[2]"
        }
      ],
      "payable": false,
      "stateMutability": "view",
      "type": "function"
    },
    {
      "constant": true,
      "inputs": [
        {
          "internalType": "uint256",
          "name": "_circulatingSupply",
          "type": "uint256"
        }
      ],
      "name": "getEstimatedRateBuySell",
      "outputs": [
        {
          "internalType": "uint256",
          "name": "",
          "type": "uint256"
        }
      ],
      "payable": false,
      "stateMutability": "view",
      "type": "function"
    },
    {
      "constant": true,
      "inputs": [],
      "name": "getEstimatedRateBuySell",
      "outputs": [
        {
          "internalType": "uint256",
          "name": "",
          "type": "uint256"
        }
      ],
      "payable": false,
      "stateMutability": "view",
      "type": "function"
    }
  ],
  "bytecode": "0x60806040526040518060400160405280601881526020017f4574685377617020496e7374616e742045786368616e676500000000000000008152506000908051906020019061004f929190610195565b5034801561005c57600080fd5b50604051610d9f380380610d9f8339818101604052602081101561007f57600080fd5b810190808051906020019092919050505080600160006101000a81548173ffffffffffffffffffffffffffffffffffffffff021916908373ffffffffffffffffffffffffffffffffffffffff160217905550620f4240600281905550600254600160009054906101000a900473ffffffffffffffffffffffffffffffffffffffff1673ffffffffffffffffffffffffffffffffffffffff166318160ddd6040518163ffffffff1660e01b815260040160206040518083038186803b15801561014657600080fd5b505afa15801561015a573d6000803e3d6000fd5b505050506040513d602081101561017057600080fd5b81019080805190602001909291905050508161018857fe5b046004819055505061023a565b828054600181600116156101000203166002900490600052602060002090601f016020900481019282601f106101d657805160ff1916838001178555610204565b82800160010185558215610204579182015b828111156102035782518255916020019190600101906101e8565b5b5090506102119190610215565b5090565b61023791905b8082111561023357600081600090555060010161021b565b5090565b90565b610b56806102496000396000f3fe6080604052600436106100865760003560e01c806363962f401161005957806363962f40146101c05780638843e163146101eb5780638ba0029914610216578063d0febe4c1461028d578063fc0c546a1461029757610086565b806306fdde031461008b5780631acfdc441461011b5780632942b0c71461016a5780632c4e722e14610195575b600080fd5b34801561009757600080fd5b506100a06102ee565b6040518080602001828103825283818151815260200191508051906020019080838360005b838110156100e05780820151818401526020810190506100c5565b50505050905090810190601f16801561010d5780820380516001836020036101000a031916815260200191505b509250505060405180910390f35b34801561012757600080fd5b506101546004803603602081101561013e57600080fd5b810190808035906020019092919050505061038c565b6040518082815260200191505060405180910390f35b34801561017657600080fd5b5061017f610445565b6040518082815260200191505060405180910390f35b3480156101a157600080fd5b506101aa61044b565b6040518082815260200191505060405180910390f35b3480156101cc57600080fd5b506101d5610451565b6040518082815260200191505060405180910390f35b3480156101f757600080fd5b50610200610457565b6040518082815260200191505060405180910390f35b34801561022257600080fd5b5061024f6004803603602081101561023957600080fd5b810190808035906020019092919050505061058c565b6040518082600260200280838360005b8381101561027a57808201518184015260208101905061025f565b5050505090500191505060405180910390f35b610295610686565b005b3480156102a357600080fd5b506102ac610ad9565b604051808273ffffffffffffffffffffffffffffffffffffffff1673ffffffffffffffffffffffffffffffffffffffff16815260200191505060405180910390f35b60008054600181600116156101000203166002900480601f0160208091040260200160405190810160405280929190818152602001828054600181600116156101000203166002900480156103845780601f1061035957610100808354040283529160200191610384565b820191906000526020600020905b81548152906001019060200180831161036757829003601f168201915b505050505081565b600081600254600160009054906101000a900473ffffffffffffffffffffffffffffffffffffffff1673ffffffffffffffffffffffffffffffffffffffff166318160ddd6040518163ffffffff1660e01b815260040160206040518083038186803b1580156103fa57600080fd5b505afa15801561040e573d6000803e3d6000fd5b505050506040513d602081101561042457600080fd5b8101908080519060200190929190505050028161043d57fe5b049050919050565b60045481565b60035481565b60025481565b60003073ffffffffffffffffffffffffffffffffffffffff16631acfdc44600160009054906101000a900473ffffffffffffffffffffffffffffffffffffffff1673ffffffffffffffffffffffffffffffffffffffff16639358928b6040518163ffffffff1660e01b815260040160206040518083038186803b1580156104dd57600080fd5b505afa1580156104f1573d6000803e3d6000fd5b505050506040513d602081101561050757600080fd5b81019080805190602001909291905050506040518263ffffffff1660e01b81526004018082815260200191505060206040518083038186803b15801561054c57600080fd5b505afa158015610560573d6000803e3d6000fd5b505050506040513d602081101561057657600080fd5b8101908080519060200190929190505050905090565b610594610aff565b600061059e610457565b90506000838202905061065e600282816105b457fe5b04600160009054906101000a900473ffffffffffffffffffffffffffffffffffffffff1673ffffffffffffffffffffffffffffffffffffffff16639358928b6040518163ffffffff1660e01b815260040160206040518083038186803b15801561061d57600080fd5b505afa158015610631573d6000803e3d6000fd5b505050506040513d602081101561064757600080fd5b81019080805190602001909291905050500161038c565b9150838202905060405180604001604052808281526020018381525092508292505050919050565b61068e610aff565b3073ffffffffffffffffffffffffffffffffffffffff16638ba00299346040518263ffffffff1660e01b815260040180828152602001915050604080518083038186803b1580156106de57600080fd5b505afa1580156106f2573d6000803e3d6000fd5b505050506040513d601f19601f82011682018060405250604081101561071757600080fd5b81019080919050509050600160009054906101000a900473ffffffffffffffffffffffffffffffffffffffff1673ffffffffffffffffffffffffffffffffffffffff166370a08231306040518263ffffffff1660e01b8152600401808273ffffffffffffffffffffffffffffffffffffffff1673ffffffffffffffffffffffffffffffffffffffff16815260200191505060206040518083038186803b1580156107c057600080fd5b505afa1580156107d4573d6000803e3d6000fd5b505050506040513d60208110156107ea57600080fd5b81019080805190602001909291905050508160006002811061080857fe5b6020020151111561081857600080fd5b60008160006002811061082757fe5b602002015111156109eb57600160009054906101000a900473ffffffffffffffffffffffffffffffffffffffff1673ffffffffffffffffffffffffffffffffffffffff1663a9059cbb338360006002811061087e57fe5b60200201516040518363ffffffff1660e01b8152600401808373ffffffffffffffffffffffffffffffffffffffff1673ffffffffffffffffffffffffffffffffffffffff16815260200182815260200192505050602060405180830381600087803b1580156108ec57600080fd5b505af1158015610900573d6000803e3d6000fd5b505050506040513d602081101561091657600080fd5b810190808051906020019092919050505050600160009054906101000a900473ffffffffffffffffffffffffffffffffffffffff1673ffffffffffffffffffffffffffffffffffffffff16632157588e8260006002811061097357fe5b60200201516040518263ffffffff1660e01b815260040180828152602001915050602060405180830381600087803b1580156109ae57600080fd5b505af11580156109c2573d6000803e3d6000fd5b505050506040513d60208110156109d857600080fd5b8101908080519060200190929190505050505b7f623b3804fa71d67900d064613da8f94b9617215ee90799290593e1745087ad1833600160009054906101000a900473ffffffffffffffffffffffffffffffffffffffff1683600060028110610a3d57fe5b602002015184600160028110610a4f57fe5b6020020151604051808573ffffffffffffffffffffffffffffffffffffffff1673ffffffffffffffffffffffffffffffffffffffff1681526020018473ffffffffffffffffffffffffffffffffffffffff1673ffffffffffffffffffffffffffffffffffffffff16815260200183815260200182815260200194505050505060405180910390a150565b600160009054906101000a900473ffffffffffffffffffffffffffffffffffffffff1681565b604051806040016040528060029060208202803883398082019150509050509056fea265627a7a72315820aa19788fa5c97791709ab99cc624a263c1abc1da8899a5023332156fd5c3bba264736f6c63430005100032",
  "source": "pragma solidity ^0.5.16;\r\n\r\nimport \"./Token.sol\";\r\n\r\n contract EthSwap {\r\n    string public name = \"EthSwap Instant Exchange\";\r\n    Token public token;\r\n    uint256 public upRate;\r\n    uint256 public rate;\r\n    uint256 public minTokenTrade;\r\n    uint128 constant decimalPart = 1000000000000000000;\r\n    // Redention rate = # of token they receive from 1 ether\r\n\r\n    event TokenPurchase(\r\n        address account,\r\n        address token,\r\n        uint256 amount,\r\n        uint256 rate\r\n    );\r\n\r\n    constructor(Token _token) public{\r\n        token = _token;\r\n        upRate = 1000000;\r\n        minTokenTrade = token.totalSupply()/upRate;\r\n    }\r\n\r\n    function buyTokens() payable public {\r\n        // tokenAmount = Amount of etheriem * Redemption rate\r\n        uint256[2] memory purchaseInfo = this.getBuyInfo(msg.value);\r\n\r\n        require(purchaseInfo[0] <= token.balanceOf(address(this)));\r\n\r\n        // If minimun eth sended\r\n        if (purchaseInfo[0] > 0){\r\n            token.transfer(msg.sender, purchaseInfo[0]);\r\n            token.addcirculatingSupply(purchaseInfo[0]);\r\n        }\r\n        emit TokenPurchase(msg.sender, address(token), purchaseInfo[0], purchaseInfo[1]);\r\n    }\r\n\r\n    function getBuyInfo(uint256 _amount) public view returns (uint256[2] memory purchaseInfo){\r\n        uint256 estimatedRate = getEstimatedRateBuySell();\r\n        uint256 tokenAmount = (estimatedRate*_amount);\r\n        estimatedRate = getEstimatedRateBuySell(token.circulatingSupply()+tokenAmount/2);\r\n        tokenAmount = (estimatedRate*_amount);\r\n        purchaseInfo = [tokenAmount, estimatedRate];\r\n        return purchaseInfo;\r\n    }\r\n\r\n    // estimated rate to buy [totalSupply/upRate] SMTK --> minToken SMTK (minimum by default)\r\n    function getEstimatedRateBuySell(uint256 _circulatingSupply) public view returns(uint256){\r\n        return (token.totalSupply()*upRate/_circulatingSupply);\r\n    }\r\n\r\n    function getEstimatedRateBuySell() public view returns(uint256){\r\n        return this.getEstimatedRateBuySell(token.circulatingSupply());\r\n    }\r\n\r\n}",
  "sourcePath": "U:\\Cancio\\Documents\\Smart-Token\\ethSwap\\src\\contracts\\EthSwap.sol",
  "compiler": {
    "name": "solc",
    "version": "0.5.16+commit.9c3226ce.Emscripten.clang"
  },
  "schemaVersion": "3.0.23",
  "updatedAt": "2021-04-16T01:38:46.966Z",
  "networkType": "ethereum",
  "devdoc": {
    "methods": {}
  },
  "userdoc": {
    "methods": {}
  }
}