{
  "contractName": "SMTKToken",
  "abi": [
    {
      "inputs": [],
      "stateMutability": "nonpayable",
      "type": "constructor"
    },
    {
      "anonymous": false,
      "inputs": [
        {
          "indexed": true,
          "internalType": "address",
          "name": "owner",
          "type": "address"
        },
        {
          "indexed": true,
          "internalType": "address",
          "name": "spender",
          "type": "address"
        },
        {
          "indexed": false,
          "internalType": "uint256",
          "name": "value",
          "type": "uint256"
        }
      ],
      "name": "Approval",
      "type": "event"
    },
    {
      "anonymous": false,
      "inputs": [
        {
          "indexed": true,
          "internalType": "address",
          "name": "from",
          "type": "address"
        },
        {
          "indexed": true,
          "internalType": "address",
          "name": "to",
          "type": "address"
        },
        {
          "indexed": false,
          "internalType": "uint256",
          "name": "value",
          "type": "uint256"
        }
      ],
      "name": "Transfer",
      "type": "event"
    },
    {
      "inputs": [
        {
          "internalType": "address",
          "name": "owner",
          "type": "address"
        },
        {
          "internalType": "address",
          "name": "spender",
          "type": "address"
        }
      ],
      "name": "allowance",
      "outputs": [
        {
          "internalType": "uint256",
          "name": "",
          "type": "uint256"
        }
      ],
      "stateMutability": "view",
      "type": "function",
      "constant": true
    },
    {
      "inputs": [
        {
          "internalType": "address",
          "name": "spender",
          "type": "address"
        },
        {
          "internalType": "uint256",
          "name": "amount",
          "type": "uint256"
        }
      ],
      "name": "approve",
      "outputs": [
        {
          "internalType": "bool",
          "name": "",
          "type": "bool"
        }
      ],
      "stateMutability": "nonpayable",
      "type": "function"
    },
    {
      "inputs": [
        {
          "internalType": "address",
          "name": "account",
          "type": "address"
        }
      ],
      "name": "balanceOf",
      "outputs": [
        {
          "internalType": "uint256",
          "name": "",
          "type": "uint256"
        }
      ],
      "stateMutability": "view",
      "type": "function",
      "constant": true
    },
    {
      "inputs": [],
      "name": "decimals",
      "outputs": [
        {
          "internalType": "uint8",
          "name": "",
          "type": "uint8"
        }
      ],
      "stateMutability": "view",
      "type": "function",
      "constant": true
    },
    {
      "inputs": [
        {
          "internalType": "address",
          "name": "spender",
          "type": "address"
        },
        {
          "internalType": "uint256",
          "name": "subtractedValue",
          "type": "uint256"
        }
      ],
      "name": "decreaseAllowance",
      "outputs": [
        {
          "internalType": "bool",
          "name": "",
          "type": "bool"
        }
      ],
      "stateMutability": "nonpayable",
      "type": "function"
    },
    {
      "inputs": [
        {
          "internalType": "address",
          "name": "spender",
          "type": "address"
        },
        {
          "internalType": "uint256",
          "name": "addedValue",
          "type": "uint256"
        }
      ],
      "name": "increaseAllowance",
      "outputs": [
        {
          "internalType": "bool",
          "name": "",
          "type": "bool"
        }
      ],
      "stateMutability": "nonpayable",
      "type": "function"
    },
    {
      "inputs": [],
      "name": "name",
      "outputs": [
        {
          "internalType": "string",
          "name": "",
          "type": "string"
        }
      ],
      "stateMutability": "view",
      "type": "function",
      "constant": true
    },
    {
      "inputs": [],
      "name": "symbol",
      "outputs": [
        {
          "internalType": "string",
          "name": "",
          "type": "string"
        }
      ],
      "stateMutability": "view",
      "type": "function",
      "constant": true
    },
    {
      "inputs": [],
      "name": "totalSupply",
      "outputs": [
        {
          "internalType": "uint256",
          "name": "",
          "type": "uint256"
        }
      ],
      "stateMutability": "view",
      "type": "function",
      "constant": true
    },
    {
      "inputs": [
        {
          "internalType": "address",
          "name": "recipient",
          "type": "address"
        },
        {
          "internalType": "uint256",
          "name": "amount",
          "type": "uint256"
        }
      ],
      "name": "transfer",
      "outputs": [
        {
          "internalType": "bool",
          "name": "",
          "type": "bool"
        }
      ],
      "stateMutability": "nonpayable",
      "type": "function"
    },
    {
      "inputs": [
        {
          "internalType": "address",
          "name": "sender",
          "type": "address"
        },
        {
          "internalType": "address",
          "name": "recipient",
          "type": "address"
        },
        {
          "internalType": "uint256",
          "name": "amount",
          "type": "uint256"
        }
      ],
      "name": "transferFrom",
      "outputs": [
        {
          "internalType": "bool",
          "name": "",
          "type": "bool"
        }
      ],
      "stateMutability": "nonpayable",
      "type": "function"
    },
    {
      "inputs": [],
      "name": "circulatingSupply",
      "outputs": [
        {
          "internalType": "uint256",
          "name": "",
          "type": "uint256"
        }
      ],
      "stateMutability": "view",
      "type": "function",
      "constant": true
    },
    {
      "inputs": [
        {
          "internalType": "uint256",
          "name": "_value",
          "type": "uint256"
        }
      ],
      "name": "addCirculatingSupply",
      "outputs": [
        {
          "internalType": "bool",
          "name": "success",
          "type": "bool"
        }
      ],
      "stateMutability": "nonpayable",
      "type": "function"
    },
    {
      "inputs": [
        {
          "internalType": "uint256",
          "name": "_value",
          "type": "uint256"
        }
      ],
      "name": "removeCirculatingSupply",
      "outputs": [
        {
          "internalType": "bool",
          "name": "success",
          "type": "bool"
        }
      ],
      "stateMutability": "nonpayable",
      "type": "function"
    }
  ],
  "bytecode": "0x60806040523480156200001157600080fd5b506040518060400160405280600b81526020017f536d61727420546f6b656e0000000000000000000000000000000000000000008152506040518060400160405280600481526020017f534d4b540000000000000000000000000000000000000000000000000000000081525081600390805190602001906200009692919062000268565b508060049080519060200190620000af92919062000268565b50505060006a34e8e561dc639dc00c000090506064603b82620000d3919062000435565b620000df9190620003fd565b600581905550620000f73382620000fe60201b60201c565b506200058c565b600073ffffffffffffffffffffffffffffffffffffffff168273ffffffffffffffffffffffffffffffffffffffff16141562000171576040517f08c379a0000000000000000000000000000000000000000000000000000000008152600401620001689062000350565b60405180910390fd5b62000185600083836200026360201b60201c565b8060026000828254620001999190620003a0565b92505081905550806000808473ffffffffffffffffffffffffffffffffffffffff1673ffffffffffffffffffffffffffffffffffffffff1681526020019081526020016000206000828254620001f09190620003a0565b925050819055508173ffffffffffffffffffffffffffffffffffffffff16600073ffffffffffffffffffffffffffffffffffffffff167fddf252ad1be2c89b69c2b068fc378daa952ba7f163c4a11628f55a4df523b3ef8360405162000257919062000372565b60405180910390a35050565b505050565b8280546200027690620004a0565b90600052602060002090601f0160209004810192826200029a5760008555620002e6565b82601f10620002b557805160ff1916838001178555620002e6565b82800160010185558215620002e6579182015b82811115620002e5578251825591602001919060010190620002c8565b5b509050620002f59190620002f9565b5090565b5b8082111562000314576000816000905550600101620002fa565b5090565b600062000327601f836200038f565b9150620003348262000563565b602082019050919050565b6200034a8162000496565b82525050565b600060208201905081810360008301526200036b8162000318565b9050919050565b60006020820190506200038960008301846200033f565b92915050565b600082825260208201905092915050565b6000620003ad8262000496565b9150620003ba8362000496565b9250827fffffffffffffffffffffffffffffffffffffffffffffffffffffffffffffffff03821115620003f257620003f1620004d6565b5b828201905092915050565b60006200040a8262000496565b9150620004178362000496565b9250826200042a576200042962000505565b5b828204905092915050565b6000620004428262000496565b91506200044f8362000496565b9250817fffffffffffffffffffffffffffffffffffffffffffffffffffffffffffffffff04831182151516156200048b576200048a620004d6565b5b828202905092915050565b6000819050919050565b60006002820490506001821680620004b957607f821691505b60208210811415620004d057620004cf62000534565b5b50919050565b7f4e487b7100000000000000000000000000000000000000000000000000000000600052601160045260246000fd5b7f4e487b7100000000000000000000000000000000000000000000000000000000600052601260045260246000fd5b7f4e487b7100000000000000000000000000000000000000000000000000000000600052602260045260246000fd5b7f45524332303a206d696e7420746f20746865207a65726f206164647265737300600082015250565b6115fe806200059c6000396000f3fe608060405234801561001057600080fd5b50600436106100ea5760003560e01c80635ed5128e1161008c57806395d89b411161006657806395d89b4114610287578063a457c2d7146102a5578063a9059cbb146102d5578063dd62ed3e14610305576100ea565b80635ed5128e1461020957806370a08231146102395780639358928b14610269576100ea565b80631accb89e116100c85780631accb89e1461015b57806323b872dd1461018b578063313ce567146101bb57806339509351146101d9576100ea565b806306fdde03146100ef578063095ea7b31461010d57806318160ddd1461013d575b600080fd5b6100f7610335565b604051610104919061106a565b60405180910390f35b61012760048036038101906101229190610e66565b6103c7565b604051610134919061104f565b60405180910390f35b6101456103e5565b604051610152919061116c565b60405180910390f35b61017560048036038101906101709190610ea2565b6103ef565b604051610182919061104f565b60405180910390f35b6101a560048036038101906101a09190610e17565b610428565b6040516101b2919061104f565b60405180910390f35b6101c3610529565b6040516101d09190611187565b60405180910390f35b6101f360048036038101906101ee9190610e66565b610532565b604051610200919061104f565b60405180910390f35b610223600480360381019061021e9190610ea2565b6105de565b604051610230919061104f565b60405180910390f35b610253600480360381019061024e9190610db2565b61069f565b604051610260919061116c565b60405180910390f35b6102716106e7565b60405161027e919061116c565b60405180910390f35b61028f6106f1565b60405161029c919061106a565b60405180910390f35b6102bf60048036038101906102ba9190610e66565b610783565b6040516102cc919061104f565b60405180910390f35b6102ef60048036038101906102ea9190610e66565b610877565b6040516102fc919061104f565b60405180910390f35b61031f600480360381019061031a9190610ddb565b610895565b60405161032c919061116c565b60405180910390f35b606060038054610344906112d0565b80601f0160208091040260200160405190810160405280929190818152602001828054610370906112d0565b80156103bd5780601f10610392576101008083540402835291602001916103bd565b820191906000526020600020905b8154815290600101906020018083116103a057829003601f168201915b5050505050905090565b60006103db6103d461091c565b8484610924565b6001905092915050565b6000600254905090565b6000816005541061041e57816005600082825461040c9190611214565b92505081905550600082119050610423565b600090505b919050565b6000610435848484610aef565b6000600160008673ffffffffffffffffffffffffffffffffffffffff1673ffffffffffffffffffffffffffffffffffffffff168152602001908152602001600020600061048061091c565b73ffffffffffffffffffffffffffffffffffffffff1673ffffffffffffffffffffffffffffffffffffffff16815260200190815260200160002054905082811015610500576040517f08c379a00000000000000000000000000000000000000000000000000000000081526004016104f7906110ec565b60405180910390fd5b61051d8561050c61091c565b85846105189190611214565b610924565b60019150509392505050565b60006012905090565b60006105d461053f61091c565b84846001600061054d61091c565b73ffffffffffffffffffffffffffffffffffffffff1673ffffffffffffffffffffffffffffffffffffffff16815260200190815260200160002060008873ffffffffffffffffffffffffffffffffffffffff1673ffffffffffffffffffffffffffffffffffffffff168152602001908152602001600020546105cf91906111be565b610924565b6001905092915050565b60003073ffffffffffffffffffffffffffffffffffffffff166318160ddd6040518163ffffffff1660e01b815260040160206040518083038186803b15801561062657600080fd5b505afa15801561063a573d6000803e3d6000fd5b505050506040513d601f19601f8201168201806040525081019061065e9190610ecb565b6005548361066c91906111be565b1161069557816005600082825461068391906111be565b9250508190555060008211905061069a565b600090505b919050565b60008060008373ffffffffffffffffffffffffffffffffffffffff1673ffffffffffffffffffffffffffffffffffffffff168152602001908152602001600020549050919050565b6000600554905090565b606060048054610700906112d0565b80601f016020809104026020016040519081016040528092919081815260200182805461072c906112d0565b80156107795780601f1061074e57610100808354040283529160200191610779565b820191906000526020600020905b81548152906001019060200180831161075c57829003601f168201915b5050505050905090565b6000806001600061079261091c565b73ffffffffffffffffffffffffffffffffffffffff1673ffffffffffffffffffffffffffffffffffffffff16815260200190815260200160002060008573ffffffffffffffffffffffffffffffffffffffff1673ffffffffffffffffffffffffffffffffffffffff1681526020019081526020016000205490508281101561084f576040517f08c379a00000000000000000000000000000000000000000000000000000000081526004016108469061114c565b60405180910390fd5b61086c61085a61091c565b8585846108679190611214565b610924565b600191505092915050565b600061088b61088461091c565b8484610aef565b6001905092915050565b6000600160008473ffffffffffffffffffffffffffffffffffffffff1673ffffffffffffffffffffffffffffffffffffffff16815260200190815260200160002060008373ffffffffffffffffffffffffffffffffffffffff1673ffffffffffffffffffffffffffffffffffffffff16815260200190815260200160002054905092915050565b600033905090565b600073ffffffffffffffffffffffffffffffffffffffff168373ffffffffffffffffffffffffffffffffffffffff161415610994576040517f08c379a000000000000000000000000000000000000000000000000000000000815260040161098b9061112c565b60405180910390fd5b600073ffffffffffffffffffffffffffffffffffffffff168273ffffffffffffffffffffffffffffffffffffffff161415610a04576040517f08c379a00000000000000000000000000000000000000000000000000000000081526004016109fb906110ac565b60405180910390fd5b80600160008573ffffffffffffffffffffffffffffffffffffffff1673ffffffffffffffffffffffffffffffffffffffff16815260200190815260200160002060008473ffffffffffffffffffffffffffffffffffffffff1673ffffffffffffffffffffffffffffffffffffffff168152602001908152602001600020819055508173ffffffffffffffffffffffffffffffffffffffff168373ffffffffffffffffffffffffffffffffffffffff167f8c5be1e5ebec7d5bd14f71427d1e84f3dd0314c0f7b2291e5b200ac8c7c3b92583604051610ae2919061116c565b60405180910390a3505050565b600073ffffffffffffffffffffffffffffffffffffffff168373ffffffffffffffffffffffffffffffffffffffff161415610b5f576040517f08c379a0000000000000000000000000000000000000000000000000000000008152600401610b569061110c565b60405180910390fd5b600073ffffffffffffffffffffffffffffffffffffffff168273ffffffffffffffffffffffffffffffffffffffff161415610bcf576040517f08c379a0000000000000000000000000000000000000000000000000000000008152600401610bc69061108c565b60405180910390fd5b610bda838383610d6e565b60008060008573ffffffffffffffffffffffffffffffffffffffff1673ffffffffffffffffffffffffffffffffffffffff16815260200190815260200160002054905081811015610c60576040517f08c379a0000000000000000000000000000000000000000000000000000000008152600401610c57906110cc565b60405180910390fd5b8181610c6c9190611214565b6000808673ffffffffffffffffffffffffffffffffffffffff1673ffffffffffffffffffffffffffffffffffffffff16815260200190815260200160002081905550816000808573ffffffffffffffffffffffffffffffffffffffff1673ffffffffffffffffffffffffffffffffffffffff1681526020019081526020016000206000828254610cfc91906111be565b925050819055508273ffffffffffffffffffffffffffffffffffffffff168473ffffffffffffffffffffffffffffffffffffffff167fddf252ad1be2c89b69c2b068fc378daa952ba7f163c4a11628f55a4df523b3ef84604051610d60919061116c565b60405180910390a350505050565b505050565b600081359050610d828161159a565b92915050565b600081359050610d97816115b1565b92915050565b600081519050610dac816115b1565b92915050565b600060208284031215610dc457600080fd5b6000610dd284828501610d73565b91505092915050565b60008060408385031215610dee57600080fd5b6000610dfc85828601610d73565b9250506020610e0d85828601610d73565b9150509250929050565b600080600060608486031215610e2c57600080fd5b6000610e3a86828701610d73565b9350506020610e4b86828701610d73565b9250506040610e5c86828701610d88565b9150509250925092565b60008060408385031215610e7957600080fd5b6000610e8785828601610d73565b9250506020610e9885828601610d88565b9150509250929050565b600060208284031215610eb457600080fd5b6000610ec284828501610d88565b91505092915050565b600060208284031215610edd57600080fd5b6000610eeb84828501610d9d565b91505092915050565b610efd8161125a565b82525050565b6000610f0e826111a2565b610f1881856111ad565b9350610f2881856020860161129d565b610f3181611360565b840191505092915050565b6000610f496023836111ad565b9150610f5482611371565b604082019050919050565b6000610f6c6022836111ad565b9150610f77826113c0565b604082019050919050565b6000610f8f6026836111ad565b9150610f9a8261140f565b604082019050919050565b6000610fb26028836111ad565b9150610fbd8261145e565b604082019050919050565b6000610fd56025836111ad565b9150610fe0826114ad565b604082019050919050565b6000610ff86024836111ad565b9150611003826114fc565b604082019050919050565b600061101b6025836111ad565b91506110268261154b565b604082019050919050565b61103a81611286565b82525050565b61104981611290565b82525050565b60006020820190506110646000830184610ef4565b92915050565b600060208201905081810360008301526110848184610f03565b905092915050565b600060208201905081810360008301526110a581610f3c565b9050919050565b600060208201905081810360008301526110c581610f5f565b9050919050565b600060208201905081810360008301526110e581610f82565b9050919050565b6000602082019050818103600083015261110581610fa5565b9050919050565b6000602082019050818103600083015261112581610fc8565b9050919050565b6000602082019050818103600083015261114581610feb565b9050919050565b600060208201905081810360008301526111658161100e565b9050919050565b60006020820190506111816000830184611031565b92915050565b600060208201905061119c6000830184611040565b92915050565b600081519050919050565b600082825260208201905092915050565b60006111c982611286565b91506111d483611286565b9250827fffffffffffffffffffffffffffffffffffffffffffffffffffffffffffffffff0382111561120957611208611302565b5b828201905092915050565b600061121f82611286565b915061122a83611286565b92508282101561123d5761123c611302565b5b828203905092915050565b600061125382611266565b9050919050565b60008115159050919050565b600073ffffffffffffffffffffffffffffffffffffffff82169050919050565b6000819050919050565b600060ff82169050919050565b60005b838110156112bb5780820151818401526020810190506112a0565b838111156112ca576000848401525b50505050565b600060028204905060018216806112e857607f821691505b602082108114156112fc576112fb611331565b5b50919050565b7f4e487b7100000000000000000000000000000000000000000000000000000000600052601160045260246000fd5b7f4e487b7100000000000000000000000000000000000000000000000000000000600052602260045260246000fd5b6000601f19601f8301169050919050565b7f45524332303a207472616e7366657220746f20746865207a65726f206164647260008201527f6573730000000000000000000000000000000000000000000000000000000000602082015250565b7f45524332303a20617070726f766520746f20746865207a65726f20616464726560008201527f7373000000000000000000000000000000000000000000000000000000000000602082015250565b7f45524332303a207472616e7366657220616d6f756e742065786365656473206260008201527f616c616e63650000000000000000000000000000000000000000000000000000602082015250565b7f45524332303a207472616e7366657220616d6f756e742065786365656473206160008201527f6c6c6f77616e6365000000000000000000000000000000000000000000000000602082015250565b7f45524332303a207472616e736665722066726f6d20746865207a65726f20616460008201527f6472657373000000000000000000000000000000000000000000000000000000602082015250565b7f45524332303a20617070726f76652066726f6d20746865207a65726f2061646460008201527f7265737300000000000000000000000000000000000000000000000000000000602082015250565b7f45524332303a2064656372656173656420616c6c6f77616e63652062656c6f7760008201527f207a65726f000000000000000000000000000000000000000000000000000000602082015250565b6115a381611248565b81146115ae57600080fd5b50565b6115ba81611286565b81146115c557600080fd5b5056fea264697066735822122080035f932be5d6769502f4c6269049caace0f5c3a894ff680b6b907d192003dd64736f6c63430008030033",
  "immutableReferences": {},
  "source": "// SPDX-License-Identifier: MIT\r\npragma solidity ^0.8.3;\r\n\r\nimport '@openzeppelin/contracts/token/ERC20/ERC20.sol';\r\n\r\n\r\n\r\ncontract SMTKToken is ERC20 {\r\n\r\n    uint256 private _circulatingSupply;\r\n\r\n  constructor() ERC20('Smart Token', 'SMKT') {\r\n    uint256 totalSupply = 63963963 * 10 ** 18;\r\n    _circulatingSupply = (totalSupply*59)/100;\r\n    _mint(msg.sender, totalSupply);\r\n  }\r\n\r\n    function circulatingSupply() public view returns (uint256){\r\n        return _circulatingSupply;\r\n    }\r\n\r\n    // TODO: Change function visibility\r\n    function addCirculatingSupply(uint256 _value)\r\n        external\r\n        returns (bool success)\r\n    {\r\n        if (_value + _circulatingSupply <= this.totalSupply()) {\r\n            _circulatingSupply += _value;\r\n            return _value > 0;\r\n        }\r\n        return false;\r\n    }\r\n\r\n    // TODO: Change function visibility\r\n    function removeCirculatingSupply(uint256 _value)\r\n        external\r\n        returns (bool success)\r\n    {\r\n        if (_circulatingSupply >= _value) {\r\n            _circulatingSupply -= _value;\r\n            return _value > 0;\r\n        }\r\n        return false;\r\n    }\r\n\r\n}\r\n",
  "sourcePath": "U:/Cancio/Documents/Smart-Token/ethSwap/src/contracts/SMTKToken.sol",
  "compiler": {
    "name": "solc",
    "version": "0.8.3+commit.8d00100c.Emscripten.clang"
  },
  "schemaVersion": "3.3.4",
  "updatedAt": "2021-04-21T02:25:49.050Z",
  "networkType": "ethereum",
  "devdoc": {
    "kind": "dev",
    "methods": {
      "allowance(address,address)": {
        "details": "See {IERC20-allowance}."
      },
      "approve(address,uint256)": {
        "details": "See {IERC20-approve}. Requirements: - `spender` cannot be the zero address."
      },
      "balanceOf(address)": {
        "details": "See {IERC20-balanceOf}."
      },
      "decimals()": {
        "details": "Returns the number of decimals used to get its user representation. For example, if `decimals` equals `2`, a balance of `505` tokens should be displayed to a user as `5,05` (`505 / 10 ** 2`). Tokens usually opt for a value of 18, imitating the relationship between Ether and Wei. This is the value {ERC20} uses, unless this function is overloaded; NOTE: This information is only used for _display_ purposes: it in no way affects any of the arithmetic of the contract, including {IERC20-balanceOf} and {IERC20-transfer}."
      },
      "decreaseAllowance(address,uint256)": {
        "details": "Atomically decreases the allowance granted to `spender` by the caller. This is an alternative to {approve} that can be used as a mitigation for problems described in {IERC20-approve}. Emits an {Approval} event indicating the updated allowance. Requirements: - `spender` cannot be the zero address. - `spender` must have allowance for the caller of at least `subtractedValue`."
      },
      "increaseAllowance(address,uint256)": {
        "details": "Atomically increases the allowance granted to `spender` by the caller. This is an alternative to {approve} that can be used as a mitigation for problems described in {IERC20-approve}. Emits an {Approval} event indicating the updated allowance. Requirements: - `spender` cannot be the zero address."
      },
      "name()": {
        "details": "Returns the name of the token."
      },
      "symbol()": {
        "details": "Returns the symbol of the token, usually a shorter version of the name."
      },
      "totalSupply()": {
        "details": "See {IERC20-totalSupply}."
      },
      "transfer(address,uint256)": {
        "details": "See {IERC20-transfer}. Requirements: - `recipient` cannot be the zero address. - the caller must have a balance of at least `amount`."
      },
      "transferFrom(address,address,uint256)": {
        "details": "See {IERC20-transferFrom}. Emits an {Approval} event indicating the updated allowance. This is not required by the EIP. See the note at the beginning of {ERC20}. Requirements: - `sender` and `recipient` cannot be the zero address. - `sender` must have a balance of at least `amount`. - the caller must have allowance for ``sender``'s tokens of at least `amount`."
      }
    },
    "version": 1
  },
  "userdoc": {
    "kind": "user",
    "methods": {},
    "version": 1
  }
}